{
  "transactions": [
    {
      "hash": "0x967d7d92e28c40e9e415259d1f4520773406eaca18a4604890262a8e4535ca81",
      "transactionType": "CALL",
      "contractName": null,
      "contractAddress": "0xa5a2250b0170bdb9bd0904c0440717f00a506023",
      "function": "withdraw(uint256)",
      "arguments": [
        "3000000"
      ],
      "transaction": {
        "from": "0x6786b1148e0377befe86ff46cc073de96b987fe4",
        "to": "0xa5a2250b0170bdb9bd0904c0440717f00a506023",
        "gas": "0xfce2",
        "value": "0x0",
        "input": "0x2e1a7d4d00000000000000000000000000000000000000000000000000000000002dc6c0",
        "nonce": "0x27",
        "chainId": "0x7e4"
      },
      "additionalContracts": [],
      "isFixedGasLimit": false
    }
  ],
  "receipts": [
    {
      "status": "0x1",
      "cumulativeGasUsed": "0x3b276",
      "logs": [
        {
          "address": "0x0b7007c13325c48911f73a2dad5fa5dcbf808adc",
          "topics": [
            "0xddf252ad1be2c89b69c2b068fc378daa952ba7f163c4a11628f55a4df523b3ef",
            "0x000000000000000000000000a5a2250b0170bdb9bd0904c0440717f00a506023",
            "0x0000000000000000000000006786b1148e0377befe86ff46cc073de96b987fe4"
          ],
          "data": "0x00000000000000000000000000000000000000000000000000000000002dc6c0",
          "blockHash": "0xe708da54e53aeec14402888a5c01e6ef6a13f5376195f9f273fcdf948dc93582",
          "blockNumber": "0x2c764a3",
          "transactionHash": "0x967d7d92e28c40e9e415259d1f4520773406eaca18a4604890262a8e4535ca81",
          "transactionIndex": "0x3",
          "logIndex": "0x3",
          "removed": false
        }
      ],
      "logsBloom": "0x00000000000000000000000000000000000000000000000000000000000000800000000000001000000000000000000000000000000000000000000000001000000000000000000000000008000000000000000000000000000000000000000000000000000000000000000000000000000000000000000000000010010000000000000000000000000000000000000000001000000000000000000004000000000000000000000000000000000000000000000000000000000000000000000000000003000000000000000000000000000000000000000000000000200000000000000000000000000000000000000000000000000000000000000000000100",
      "type": "0x0",
      "transactionHash": "0x967d7d92e28c40e9e415259d1f4520773406eaca18a4604890262a8e4535ca81",
      "transactionIndex": "0x3",
      "blockHash": "0xe708da54e53aeec14402888a5c01e6ef6a13f5376195f9f273fcdf948dc93582",
      "blockNumber": "0x2c764a3",
      "gasUsed": "0xacea",
      "effectiveGasPrice": "0x51fa7178a",
      "from": "0x6786b1148e0377befe86ff46cc073de96b987fe4",
      "to": "0xa5a2250b0170bdb9bd0904c0440717f00a506023",
      "contractAddress": null
    }
  ],
  "libraries": [],
  "pending": [],
  "returns": {},
  "timestamp": 1751721322,
  "chain": 2020,
  "commit": "0142231"
}