{
  "transactions": [
    {
      "hash": "0x249643dd943c0b4af081c38fa1d6ec3d8d362d87b55ba8ce9a7189677f8da60e",
      "transactionType": "CALL",
      "contractName": null,
      "contractAddress": "0xa5a2250b0170bdb9bd0904c0440717f00a506023",
      "function": "withdraw(uint256)",
      "arguments": [
        "3000000"
      ],
      "transaction": {
        "from": "0x6786b1148e0377befe86ff46cc073de96b987fe4",
        "to": "0xa5a2250b0170bdb9bd0904c0440717f00a506023",
        "gas": "0xfce2",
        "value": "0x0",
        "input": "0x2e1a7d4d00000000000000000000000000000000000000000000000000000000002dc6c0",
        "nonce": "0x13",
        "chainId": "0x7e4"
      },
      "additionalContracts": [],
      "isFixedGasLimit": false
    }
  ],
  "receipts": [
    {
      "status": "0x1",
      "cumulativeGasUsed": "0xcf2dd",
      "logs": [
        {
          "address": "0x0b7007c13325c48911f73a2dad5fa5dcbf808adc",
          "topics": [
            "0xddf252ad1be2c89b69c2b068fc378daa952ba7f163c4a11628f55a4df523b3ef",
            "0x000000000000000000000000a5a2250b0170bdb9bd0904c0440717f00a506023",
            "0x0000000000000000000000006786b1148e0377befe86ff46cc073de96b987fe4"
          ],
          "data": "0x00000000000000000000000000000000000000000000000000000000002dc6c0",
          "blockHash": "0x3d8286823999e9637d9a919c6f78dd9aec0711a528f79ab60479713f4cd6baee",
          "blockNumber": "0x2c71f52",
          "transactionHash": "0x249643dd943c0b4af081c38fa1d6ec3d8d362d87b55ba8ce9a7189677f8da60e",
          "transactionIndex": "0x6",
          "logIndex": "0xc",
          "removed": false
        }
      ],
      "logsBloom": "0x00000000000000000000000000000000000000000000000000000000000000800000000000001000000000000000000000000000000000000000000000001000000000000000000000000008000000000000000000000000000000000000000000000000000000000000000000000000000000000000000000000010010000000000000000000000000000000000000000001000000000000000000004000000000000000000000000000000000000000000000000000000000000000000000000000003000000000000000000000000000000000000000000000000200000000000000000000000000000000000000000000000000000000000000000000100",
      "type": "0x0",
      "transactionHash": "0x249643dd943c0b4af081c38fa1d6ec3d8d362d87b55ba8ce9a7189677f8da60e",
      "transactionIndex": "0x6",
      "blockHash": "0x3d8286823999e9637d9a919c6f78dd9aec0711a528f79ab60479713f4cd6baee",
      "blockNumber": "0x2c71f52",
      "gasUsed": "0xacea",
      "effectiveGasPrice": "0x51d49ee3b",
      "from": "0x6786b1148e0377befe86ff46cc073de96b987fe4",
      "to": "0xa5a2250b0170bdb9bd0904c0440717f00a506023",
      "contractAddress": null
    }
  ],
  "libraries": [],
  "pending": [],
  "returns": {},
  "timestamp": 1751667890,
  "chain": 2020,
  "commit": "0142231"
}