{
  "transactions": [
    {
      "hash": "0x56567dc676ce01ff9023430f8870445093e90c49d613e950202eb4809bdf9103",
      "transactionType": "CALL",
      "contractName": null,
      "contractAddress": "0xa5a2250b0170bdb9bd0904c0440717f00a506023",
      "function": "withdraw(uint256)",
      "arguments": [
        "2000000"
      ],
      "transaction": {
        "from": "0x6786b1148e0377befe86ff46cc073de96b987fe4",
        "to": "0xa5a2250b0170bdb9bd0904c0440717f00a506023",
        "gas": "0xfce2",
        "value": "0x0",
        "input": "0x2e1a7d4d00000000000000000000000000000000000000000000000000000000001e8480",
        "nonce": "0x18",
        "chainId": "0x7e4"
      },
      "additionalContracts": [],
      "isFixedGasLimit": false
    }
  ],
  "receipts": [
    {
      "status": "0x1",
      "cumulativeGasUsed": "0x150339",
      "logs": [
        {
          "address": "0x0b7007c13325c48911f73a2dad5fa5dcbf808adc",
          "topics": [
            "0xddf252ad1be2c89b69c2b068fc378daa952ba7f163c4a11628f55a4df523b3ef",
            "0x000000000000000000000000a5a2250b0170bdb9bd0904c0440717f00a506023",
            "0x0000000000000000000000006786b1148e0377befe86ff46cc073de96b987fe4"
          ],
          "data": "0x00000000000000000000000000000000000000000000000000000000001e8480",
          "blockHash": "0xbffaa6f55b73cf93864250d19e1cbf2515e33693d62a1092a20b3ad11b248b3b",
          "blockNumber": "0x2c72018",
          "transactionHash": "0x56567dc676ce01ff9023430f8870445093e90c49d613e950202eb4809bdf9103",
          "transactionIndex": "0xf",
          "logIndex": "0x1d",
          "removed": false
        }
      ],
      "logsBloom": "0x00000000000000000000000000000000000000000000000000000000000000800000000000001000000000000000000000000000000000000000000000001000000000000000000000000008000000000000000000000000000000000000000000000000000000000000000000000000000000000000000000000010010000000000000000000000000000000000000000001000000000000000000004000000000000000000000000000000000000000000000000000000000000000000000000000003000000000000000000000000000000000000000000000000200000000000000000000000000000000000000000000000000000000000000000000100",
      "type": "0x0",
      "transactionHash": "0x56567dc676ce01ff9023430f8870445093e90c49d613e950202eb4809bdf9103",
      "transactionIndex": "0xf",
      "blockHash": "0xbffaa6f55b73cf93864250d19e1cbf2515e33693d62a1092a20b3ad11b248b3b",
      "blockNumber": "0x2c72018",
      "gasUsed": "0xacea",
      "effectiveGasPrice": "0x512ffdd7f",
      "from": "0x6786b1148e0377befe86ff46cc073de96b987fe4",
      "to": "0xa5a2250b0170bdb9bd0904c0440717f00a506023",
      "contractAddress": null
    }
  ],
  "libraries": [],
  "pending": [],
  "returns": {},
  "timestamp": 1751668483,
  "chain": 2020,
  "commit": "0142231"
}